{
  "contractName": "Todo",
  "abi": [
    {
      "anonymous": false,
      "inputs": [
        {
          "indexed": false,
          "internalType": "uint256",
          "name": "id",
          "type": "uint256"
        },
        {
          "indexed": false,
          "internalType": "uint256",
          "name": "date",
          "type": "uint256"
        },
        {
          "indexed": false,
          "internalType": "string",
          "name": "content",
          "type": "string"
        },
        {
          "indexed": false,
          "internalType": "string",
          "name": "author",
          "type": "string"
        },
        {
          "indexed": false,
          "internalType": "bool",
          "name": "done",
          "type": "bool"
        }
      ],
      "name": "TaskCreated",
      "type": "event"
    },
    {
      "anonymous": false,
      "inputs": [
        {
          "indexed": false,
          "internalType": "uint256",
          "name": "id",
          "type": "uint256"
        },
        {
          "indexed": false,
          "internalType": "bool",
          "name": "done",
          "type": "bool"
        },
        {
          "indexed": false,
          "internalType": "uint256",
          "name": "date",
          "type": "uint256"
        }
      ],
      "name": "TaskStatusToggled",
      "type": "event"
    },
    {
      "constant": true,
      "inputs": [
        {
          "internalType": "uint256",
          "name": "",
          "type": "uint256"
        }
      ],
      "name": "tasks",
      "outputs": [
        {
          "internalType": "uint256",
          "name": "id",
          "type": "uint256"
        },
        {
          "internalType": "uint256",
          "name": "date",
          "type": "uint256"
        },
        {
          "internalType": "string",
          "name": "content",
          "type": "string"
        },
        {
          "internalType": "string",
          "name": "author",
          "type": "string"
        },
        {
          "internalType": "bool",
          "name": "done",
          "type": "bool"
        },
        {
          "internalType": "uint256",
          "name": "dateComplete",
          "type": "uint256"
        }
      ],
      "payable": false,
      "stateMutability": "view",
      "type": "function"
    },
    {
      "constant": false,
      "inputs": [
        {
          "internalType": "string",
          "name": "_content",
          "type": "string"
        },
        {
          "internalType": "string",
          "name": "_author",
          "type": "string"
        }
      ],
      "name": "createTask",
      "outputs": [],
      "payable": false,
      "stateMutability": "nonpayable",
      "type": "function"
    },
    {
      "constant": true,
      "inputs": [],
      "name": "getTasks",
      "outputs": [
        {
          "components": [
            {
              "internalType": "uint256",
              "name": "id",
              "type": "uint256"
            },
            {
              "internalType": "uint256",
              "name": "date",
              "type": "uint256"
            },
            {
              "internalType": "string",
              "name": "content",
              "type": "string"
            },
            {
              "internalType": "string",
              "name": "author",
              "type": "string"
            },
            {
              "internalType": "bool",
              "name": "done",
              "type": "bool"
            },
            {
              "internalType": "uint256",
              "name": "dateComplete",
              "type": "uint256"
            }
          ],
          "internalType": "struct Todo.Task[]",
          "name": "",
          "type": "tuple[]"
        }
      ],
      "payable": false,
      "stateMutability": "view",
      "type": "function"
    },
    {
      "constant": false,
      "inputs": [
        {
          "internalType": "uint256",
          "name": "id",
          "type": "uint256"
        }
      ],
      "name": "toggleDone",
      "outputs": [],
      "payable": false,
      "stateMutability": "nonpayable",
      "type": "function"
    }
  ],
  "bytecode": "0x608060405234801561001057600080fd5b50610db1806100206000396000f3fe608060405234801561001057600080fd5b506004361061004c5760003560e01c806304a87e3814610051578063292a45851461006f5780638d9776721461008b578063d81ef739146100c0575b600080fd5b6100596100dc565b6040516100669190610b3b565b60405180910390f35b61008960048036036100849190810190610869565b6102f4565b005b6100a560048036036100a091908101906108de565b61049c565b6040516100b796959493929190610c19565b60405180910390f35b6100da60048036036100d591908101906108de565b610615565b005b60608060015460405190808252806020026020018201604052801561011b57816020015b61010861072d565b8152602001906001900390816101005790505b50905060008090505b6001548110156102ec576000808281526020019081526020016000206040518060c00160405290816000820154815260200160018201548152602001600282018054600181600116156101000203166002900480601f0160208091040260200160405190810160405280929190818152602001828054600181600116156101000203166002900480156101f85780601f106101cd576101008083540402835291602001916101f8565b820191906000526020600020905b8154815290600101906020018083116101db57829003601f168201915b50505050508152602001600382018054600181600116156101000203166002900480601f01602080910402602001604051908101604052809291908181526020018280546001816001161561010002031660029004801561029a5780601f1061026f5761010080835404028352916020019161029a565b820191906000526020600020905b81548152906001019060200180831161027d57829003601f168201915b505050505081526020016004820160009054906101000a900460ff161515151581526020016005820154815250508282815181106102d457fe5b60200260200101819052508080600101915050610124565b508091505090565b6040518060c00160405280600154815260200142815260200185858080601f016020809104026020016040519081016040528093929190818152602001838380828437600081840152601f19601f82011690508083019250505050505050815260200183838080601f016020809104026020016040519081016040528093929190818152602001838380828437600081840152601f19601f82011690508083019250505050505050815260200160001515815260200160008152506000806001548152602001908152602001600020600082015181600001556020820151816001015560408201518160020190805190602001906103f3929190610765565b506060820151816003019080519060200190610410929190610765565b5060808201518160040160006101000a81548160ff02191690831515021790555060a082015181600501559050507fb322bdd3250d405f7845d27fa1f0753f8f7e18e40886bc254b89005c3e9c03246001544286868686600060405161047c9796959493929190610bb4565b60405180910390a160016000815480929190600101919050555050505050565b6000602052806000526040600020600091509050806000015490806001015490806002018054600181600116156101000203166002900480601f0160208091040260200160405190810160405280929190818152602001828054600181600116156101000203166002900480156105545780601f1061052957610100808354040283529160200191610554565b820191906000526020600020905b81548152906001019060200180831161053757829003601f168201915b505050505090806003018054600181600116156101000203166002900480601f0160208091040260200160405190810160405280929190818152602001828054600181600116156101000203166002900480156105f25780601f106105c7576101008083540402835291602001916105f2565b820191906000526020600020905b8154815290600101906020018083116105d557829003601f168201915b5050505050908060040160009054906101000a900460ff16908060050154905086565b600080600083815260200190815260200160002060010154141561066e576040517f08c379a000000000000000000000000000000000000000000000000000000000815260040161066590610b5d565b60405180910390fd5b600080600083815260200190815260200160002090508060040160009054906101000a900460ff16158160040160006101000a81548160ff0219169083151502179055508060040160009054906101000a900460ff166106cf5760006106d1565b425b81600501819055507fcb1ceae718a6ae11d5daf00e292e318717e0acf2d326ed670df0e5ff67ba5000828260040160009054906101000a900460ff16836005015460405161072193929190610b7d565b60405180910390a15050565b6040518060c0016040528060008152602001600081526020016060815260200160608152602001600015158152602001600081525090565b828054600181600116156101000203166002900490600052602060002090601f016020900481019282601f106107a657805160ff19168380011785556107d4565b828001600101855582156107d4579182015b828111156107d35782518255916020019190600101906107b8565b5b5090506107e191906107e5565b5090565b61080791905b808211156108035760008160009055506001016107eb565b5090565b90565b60008083601f84011261081c57600080fd5b8235905067ffffffffffffffff81111561083557600080fd5b60208301915083600182028301111561084d57600080fd5b9250929050565b60008135905061086381610d57565b92915050565b6000806000806040858703121561087f57600080fd5b600085013567ffffffffffffffff81111561089957600080fd5b6108a58782880161080a565b9450945050602085013567ffffffffffffffff8111156108c457600080fd5b6108d08782880161080a565b925092505092959194509250565b6000602082840312156108f057600080fd5b60006108fe84828501610854565b91505092915050565b60006109138383610a8d565b905092915050565b600061092682610c98565b6109308185610cbb565b93508360208202850161094285610c88565b8060005b8581101561097e578484038952815161095f8582610907565b945061096a83610cae565b925060208a01995050600181019050610946565b50829750879550505050505092915050565b61099981610cee565b82525050565b6109a881610cee565b82525050565b60006109ba8385610cdd565b93506109c7838584610d04565b6109d083610d46565b840190509392505050565b60006109e682610ca3565b6109f08185610ccc565b9350610a00818560208601610d13565b610a0981610d46565b840191505092915050565b6000610a1f82610ca3565b610a298185610cdd565b9350610a39818560208601610d13565b610a4281610d46565b840191505092915050565b6000610a5a601383610cdd565b91507f7461736b20646f6573206e6f74206578697374000000000000000000000000006000830152602082019050919050565b600060c083016000830151610aa56000860182610b1d565b506020830151610ab86020860182610b1d565b5060408301518482036040860152610ad082826109db565b91505060608301518482036060860152610aea82826109db565b9150506080830151610aff6080860182610990565b5060a0830151610b1260a0860182610b1d565b508091505092915050565b610b2681610cfa565b82525050565b610b3581610cfa565b82525050565b60006020820190508181036000830152610b55818461091b565b905092915050565b60006020820190508181036000830152610b7681610a4d565b9050919050565b6000606082019050610b926000830186610b2c565b610b9f602083018561099f565b610bac6040830184610b2c565b949350505050565b600060a082019050610bc9600083018a610b2c565b610bd66020830189610b2c565b8181036040830152610be98187896109ae565b90508181036060830152610bfe8185876109ae565b9050610c0d608083018461099f565b98975050505050505050565b600060c082019050610c2e6000830189610b2c565b610c3b6020830188610b2c565b8181036040830152610c4d8187610a14565b90508181036060830152610c618186610a14565b9050610c70608083018561099f565b610c7d60a0830184610b2c565b979650505050505050565b6000819050602082019050919050565b600081519050919050565b600081519050919050565b6000602082019050919050565b600082825260208201905092915050565b600082825260208201905092915050565b600082825260208201905092915050565b60008115159050919050565b6000819050919050565b82818337600083830152505050565b60005b83811015610d31578082015181840152602081019050610d16565b83811115610d40576000848401525b50505050565b6000601f19601f8301169050919050565b610d6081610cfa565b8114610d6b57600080fd5b5056fea365627a7a723158202bde6b6d6b89ebfd5e4974b23baec2a341ebc98245e8b614bf92b533669351796c6578706572696d656e74616cf564736f6c63430005100040",
  "source": "pragma solidity ^0.5.0;\npragma experimental ABIEncoderV2;\n\ncontract Todo {\n    struct Task {\n    uint id;\n    uint date;\n    string content;\n    string author;\n    bool done;\n    uint dateComplete;\n    }\n    mapping(uint => Task) public tasks;\n    uint nextTaskId;\n\n    event TaskCreated(\n        uint id,\n        uint date,\n        string content,\n        string author,\n        bool done\n    );\n    event TaskStatusToggled(\n        uint id, \n        bool done, \n        uint date\n    );\n\n    function createTask(\n        string calldata _content, \n        string calldata _author) \n        external {\n        tasks[nextTaskId] = Task(nextTaskId, block.timestamp, _content, _author, false, 0);\n        emit TaskCreated(nextTaskId, block.timestamp, _content, _author, false);\n        nextTaskId++;\n    }\n\n    function getTasks() external view returns(Task[] memory) {\n        Task[] memory _tasks = new Task[](nextTaskId);\n        for(uint i = 0; i < nextTaskId; i++) {\n            _tasks[i] = tasks[i];\n        }\n        return _tasks;\n    }\n\n    function toggleDone(uint id) external {\n        require(tasks[id].date != 0, 'task does not exist');\n        Task storage task = tasks[id];\n        task.done = !task.done;\n        task.dateComplete = task.done ? block.timestamp : 0;\n        emit TaskStatusToggled(id, task.done, task.dateComplete);\n    }\n}",
  "sourcePath": "/home/yos/truffle_todo/src/contracts/Todo.sol",
  "compiler": {
    "name": "solc",
    "version": "0.5.16+commit.9c3226ce.Emscripten.clang"
  },
  "schemaVersion": "3.0.23",
  "updatedAt": "2024-04-18T12:01:34.321Z",
  "networkType": "ethereum",
  "devdoc": {
    "methods": {}
  },
  "userdoc": {
    "methods": {}
  }
}